:060000008031822B00009C
:0800080083018031200077081C
:10001000A0007808A1007908A2007A08A300850151
:1000200091308400001C1628111826288501913073
:100030008400801D1D28911928282008F700210818
:10004000F8002208F9002308FA00090080311F2A6D
:100050008031602822005F0DE400E40DE40DF830EB
:10006000E4056008073C6407053E840020308500F5
:100070000318850A610880005F0DE400E40DE40DBB
:10008000F830E4056008073C6407453E84002030F2
:1000900085000318850A620880005F0DE400E40D06
:1000A000E40DF830E4056008073C6407853E8400F1
:1000B000203085000318850A6308800020000800AE
:1000C0002400941A6628F5011419F5177508F50A25
:1000D000F400F408031D762815132000911D6E28E6
:1000E000240011081516F300F1011A2A7408003CC7
:1000F00003181A2A74087F3C031C1A2A15132000BF
:10010000911D8028240011081516F300740BF028A7
:100110007308C83C031D8F280230F100ED287308D6
:10012000EF3C0318E9287308F73C031CE928033067
:10013000F100730804392200DB0073080239DC0087
:1001400073080139DD005B08DF005C08E0005D0832
:10015000E100E2016208073C031CE728E3016308B1
:10016000073C031CE528620DF700F70DF70DF8308A
:10017000F70577086307053E8400203085000318E3
:10018000850A5F088000620DF700F70DF70DF83063
:10019000F70577086307453E840020308500031883
:1001A000850A60088000620DF700F70DF70DF83042
:1001B000F70577086307853E840020308500031823
:1001C000850A61088000E30AAF28E20AAA28EE281F
:1001D00024000130F1007308F20022001B2A2400E1
:1001E000710B1429720C2200D900D90CD90C1F30C4
:1001F000D90572080739DA0073080439DB0073087F
:100200000239DC0073080139DD005A08DF005908A3
:10021000E0005B08E1005C08E2005D08E30020000C
:100220002A20F20A192A24007108023C031D1A2A06
:100230007308813C03181A2A7308B43C031C1A2A59
:100240000B08F7008B13230091017308930095139B
:10025000151555309600AA309600951495182E293C
:10026000151177088B042200DB015B08073C031C97
:100270006F29DC015C08073C031C6D295B0DF7004E
:10028000F70DF70DF830F70577085C07053E840099
:10029000203085000318850A80015B0DF700F70DFB
:1002A000F70DF830F70577085C07453E84002030ED
:1002B00085000318850A80015B0DF700F70DF70D27
:1002C000F830F70577085C07853E8400203085000C
:1002D0000318850A8001DC0A3A29DB0A3529013036
:1002E000DF000230E000E101E2010130E300200024
:1002F0002A2002302200DF00E000E101E2010130AB
:10030000E30020002A202200DF010330E000E101A9
:10031000E2010130E30020002A2003302200DF0048
:10032000E000E101E2010130E30020002A20220088
:10033000DF010430E000E101E2010130E3002000D0
:100340002A2003302200DF000430E000E101E20156
:100350000130E30020002A2001302200DF000530B8
:10036000E000E101E2010130E30020002A20023038
:100370002200DF000530E000E101E2010130E3008E
:1003800020002A2005302200DF000230E000E101D9
:10039000E2010130E30020002A2005302200DF00C6
:1003A0000330E000E101E2010130E30020002A20F7
:1003B00005302200DF000430E000E101E2010130FD
:1003C000E30020002A2005302200DF00E000E101E8
:1003D000E2010130E30020002A2006302200DF0085
:1003E0000330E000E101E2010130E30020002A20B7
:1003F00006302200DF000430E000E101E2010130BC
:10040000E30020002A2007302200DF000230E00055
:10041000E101E2010130E30020002A200730220040
:10042000DF000530E000E101E2010130E3002000DF
:100430002A20240022002000911180311D28220052
:10044000C808031D2E2AC908031D2E2A4708D900F3
:100450008831200000208031192B22004808643C9C
:10046000031D712AC908031D712ADB015B08073CC3
:10047000031C702ADC015C08073C031C6E2A5B0D20
:10048000F700F70DF70DF830F70577085C07053E24
:100490008400203085000318850A80015B0DF70079
:1004A000F70DF70DF830F70577085C07453E840037
:1004B000203085000318850A80015B0DF700F70DD9
:1004C000F70DF830F70577085C07853E840020308B
:1004D00085000318850A8001DC0A3B2ADB0A362ADC
:1004E0001A2B4808963C031D802AC908031D802A40
:1004F0004608D9008831200000208031192B2200C5
:100500004808FA3C031DC32AC908031DC32ADB019E
:100510005B08073C031CC22ADC015C08073C031C87
:10052000C02A5B0DF700F70DF70DF830F7057708D7
:100530005C07053E8400203085000318850A800191
:100540005B0DF700F70DF70DF830F70577085C073E
:10055000453E8400203085000318850A80015B0D2C
:10056000F700F70DF70DF830F70577085C07853EC3
:100570008400203085000318850A8001DC0A8D2A5A
:10058000DB0A882A1A2B48082C3C031DD12A490B68
:10059000D12A4508D9008831200000208031192B4C
:1005A00022004808903C031D1A2B490B1A2BDB0133
:1005B0005B08073C031C122BDC015C08073C031C96
:1005C000102B5B0DF700F70DF70DF830F7057708E6
:1005D0005C07053E8400203085000318850A8001F1
:1005E0005B0DF700F70DF70DF830F70577085C079E
:1005F000453E8400203085000318850A80015B0D8C
:10060000F700F70DF70DF830F70577085C07853E22
:100610008400203085000318850A8001DC0ADD2A69
:10062000DB0AD82A2100111022009D122000980117
:1006300099012200C80A0319C90A2000111080314B
:100640001D2822004F08F8014E0203182A2B4E08DD
:10065000F700362BF7010830D000CE0DF70D4F080C
:1006600077020318F700F80DD00B2D2B200008009F
:1006700022005208F70003102300951715140000FC
:10068000000013088000840A910A0319920AF70BEC
:100690003E2B20000800220052080739F700520CB8
:1006A000F800F80CF80C1F30F8057808540784009F
:1006B0000030553D8500F801F80AF70A602BF80D67
:1006C000F70B5F2BD3080319682B780880046B2B7A
:1006D000F809780880052000080020308500CF3018
:1006E000840000080319812B0A30F800F701F70B8A
:1006F000772BF80B762B5F30F700F70B7D2B800BF9
:10070000742B0800F030210099001A088E150E167F
:100710002400171097109711A2309200FF30930019
:100720003630950016142200C901C801F1010330CA
:10073000F5002F0091019201980199019A0123007F
:100740008C018D018F019001220092019101940191
:100750009301C501C601C701DB015B08073C031C0F
:10076000E72BDC015C08073C031CE52B5B0DF70065
:10077000F70DF70DF830F70577085C07053E8400A4
:10078000203085000318850A80015B0DF700F70D06
:10079000F70DF830F70577085C07453E84002030F8
:1007A00085000318850A80015B0DF700F70DF70D32
:1007B000F830F70577085C07853E84002030850017
:1007C0000318850A8001DC0AB22BDB0AAD2B23005B
:1007D0009101951315141308F0007008813C03185B
:1007E000FA2B7008B43C031CFA2B7008240092000A
:1007F000FD2B2300A230F00024002200CA014A0889
:10080000CA0AC53E8400203085000318850A700896
:10081000CE000A30CF002000212377088000700826
:100820002200CE000A30CF00200021237808F000FB
:10083000F00803191D2C2200FF2B2200CB014B08CE
:10084000073C031C312DF8304B07CC001F30CD0086
:100850000318CD0A4D082300920022004C08230003
:10086000910020308500CE30840001302200D2007B
:100870002000382322004E08D200D301D501803059
:10088000D40020004B23F83022004B07CC001F304F
:10089000CD000318CD0A4D082300920022004C0819
:1008A0002300910020308500CE30840001302200EA
:1008B000D2002000382322004E08D2000130D3009D
:1008C0000130D500D40120004B23E03022004B073B
:1008D000CC001F30CD000318CD0A4D082300920034
:1008E00022004C082300910020308500CE30840087
:1008F00001302200D2002000382322004E08D2000E
:10090000D301D5018030D40020004B23E0302200F9
:100910004B07CC001F30CD000318CD0A4D08230033
:10092000920022004C082300910020308500CE3038
:10093000840001302200D2002000382322004E081B
:10094000D2000130D3000130D500D40120004B2368
:10095000F03022004B07CC001F30CD000318CD0A29
:100960004D082300920022004C0823009100203003
:100970008500CE30840001302200D20020003823D0
:1009800022004E08D200D301D5018030D4002000CF
:100990004B23F03022004B07CC001F30CD00031852
:1009A000CD0A4D082300920022004C08230091003C
:1009B00020308500CE30840001302200D20020009B
:1009C000382322004E08D2000130D3000130D50078
:1009D000D40120004B23E83022004B07CC001F300D
:1009E000CD000318CD0A4D082300920022004C08C8
:1009F0002300910020308500CE3084000130220099
:100A0000D2002000382322004E08D200D301D501A5
:100A10008030D40020004B23E83022004B07CC006C
:100A20001F30CD000318CD0A4D082300920022008C
:100A30004C082300910020308500CE308400013026
:100A40002200D2002000382322004E08D2000130BC
:100A5000D3000130D500D40120004B232200CB0A63
:100A60001F2C0430CC00FA30CF0020006D23220070
:100A7000CC0B332D21001E109E101E1100302300C0
:100A80008C0090008D008F0022009701920191014F
:100A9000940193019D1205302000980099012100D6
:100AA00091151114C0308B04903120000028803142
:020AB0006300E1
:101000002200DB015B08073C031C3C28DC015C0878
:10101000073C031C3A285B0DF700F70DF70DF8307D
:10102000F70577085C07053E84002030850003182B
:10103000850A80015B0DF700F70DF70DF830F70515
:1010400077085C07453E8400203085000318850A38
:1010500080015B0DF700F70DF70DF830F705770805
:101060005C07853E8400203085000318850A8001D6
:10107000DC0A0728DB0A02285908F63E03183F2F2E
:101080000A3E2000412F02302200DF000130E00044
:10109000E101E201E300803120002A2088310330A1
:1010A0002200DF000130E000E101E201E3008031D5
:1010B00020002A20883104302200DF000130E000C7
:1010C000E101E201E300803120002A20883105306F
:1010D0002200DF000130E000E101E201E3008031A5
:1010E00020002A20883102302200DF000630E00094
:1010F000E101E2010130E300803120002A20883143
:1011000003302200DF000630E000E101E20101309F
:10111000E300803120002A20883104302200DF00E3
:101120000630E000E101E2010130E30080312000FF
:101130002A20883105302200DF000630E000E1017E
:10114000E2010130E300803120002A2088310130A3
:101150002200DF000230E000E101E2010130E300A3
:10116000803120002A20883101302200DF00033046
:10117000E000E101E2010130E300803120002A209B
:10118000883101302200DF000430E000E101E2019B
:101190000130E300803120002A2088310130220014
:1011A000DF000530E000E101E2010130E3008031C1
:1011B00020002A20883106302200DF000230E000C3
:1011C000E101E2010130E300803120002A20883172
:1011D00006302200DF000330E000E101E2010130CF
:1011E000E300803120002A20883106302200DF0011
:1011F0000430E000E101E2010130E3008031200031
:101200002A20883106302200DF000530E000E101AD
:10121000E2010130E300803120002A2088312200E1
:101220003F2F03302200DF000130E000E101E20146
:10123000E300803120002A20883103302200DF00C3
:101240000230E000E101E2010130E30080312000E2
:101250002A20883103302200DF00E000E101E201B2
:101260000130E300803120002A2088310330220041
:10127000DF000430E000E101E2010130E3008031F1
:1012800020002A20883103302200DF000530E000F2
:10129000E101E2010130E300803120002A208831A1
:1012A00003302200DF000630E000E101E2010130FE
:1012B000E300803120002A20883102302200DF0044
:1012C000E000E101E2010130E300803120002A204A
:1012D000883102302200DF000630E000E101E20147
:1012E0000130E300803120002A20883104302200C0
:1012F000DF000630E000E101E2010130E30080316F
:1013000020002A20883122003F2F02302200DF00F7
:101310000130E000E101E201E300803120002A20F9
:10132000883103302200DF000130E000E101E201FA
:10133000E300803120002A20883104302200DF00C1
:101340000130E000E101E201E300803120002A20C9
:10135000883105302200DF000130E000E101E201C8
:10136000E300803120002A20883101302200DF0094
:101370000230E000E101E2010130E30080312000B1
:101380002A20883106302200DF000230E000E1012F
:10139000E2010130E300803120002A20883106304C
:1013A0002200DF000330E000E101E2010130E30050
:1013B000803120002A20883102302200DF000430F2
:1013C000E000E101E2010130E300803120002A2049
:1013D000883103302200DF000430E000E101E20147
:1013E0000130E300803120002A20883104302200BF
:1013F000DF00E000E101E2010130E3008031200084
:101400002A20883105302200DF000430E000E101AD
:10141000E2010130E300803120002A2088310130D0
:101420002200DF000530E000E101E2010130E300CD
:10143000803120002A20883101302200DF00063070
:10144000E000E101E2010130E300803120002A20C8
:10145000883102302200DF000630E000E101E201C5
:101460000130E300803120002A208831033022003F
:10147000DF000630E000E101E2010130E3008031ED
:1014800020002A20883104302200DF000630E000EE
:10149000E101E2010130E300803120002A2088319F
:1014A00005302200DF000630E000E101E2010130FA
:1014B000E300803120002A20883106302200DF003E
:1014C000E000E101E2010130E300803120002A2048
:1014D000883122003F2F02302200DF000130E0007F
:1014E000E101E201E300803120002A20883103304D
:1014F0002200DF000130E000E101E201E300803181
:1015000020002A20883104302200DF000130E00072
:10151000E101E201E300803120002A20883105301A
:101520002200DF000130E000E101E201E300803150
:1015300020002A20883106302200DF000230E0003F
:10154000E101E2010130E300803120002A208831EE
:1015500005302200DF000330E000E101E20101304C
:10156000E300803120002A20883104302200DF008F
:10157000E000E101E2010130E300803120002A2097
:10158000883105302200DF000430E000E101E20193
:101590000130E300803120002A208831063022000B
:1015A000DF000530E000E101E2010130E3008031BD
:1015B00020002A20883102302200DF000630E000BF
:1015C000E101E2010130E300803120002A2088316E
:1015D00003302200DF000630E000E101E2010130CB
:1015E000E300803120002A20883104302200DF000F
:1015F0000630E000E101E2010130E300803120002B
:101600002A20883105302200DF000630E000E101A9
:10161000E2010130E300803120002A2088312200DD
:101620003F2F02302200DF000130E000E101E20143
:10163000E300803120002A20883102302200DF00C0
:10164000E000E101E2010130E300803120002A20C6
:10165000883102302200DF000330E000E101E201C6
:101660000130E300803120002A208831023022003E
:10167000DF000430E000E101E2010130E3008031ED
:1016800020002A20883105302200DF000130E000F0
:10169000E101E201E300803120002A208831053099
:1016A0002200DF000230E000E101E2010130E3004E
:1016B000803120002A20883105302200DF000330ED
:1016C000E000E101E2010130E300803120002A2046
:1016D000883105302200DF000430E000E101E20142
:1016E0000130E300803120002A20883105302200BB
:1016F000DF00E000E101E2010130E3008031200081
:101700002A20883105302200DF000630E000E101A8
:10171000E2010130E300803120002A2088310330CB
:101720002200DF000430E000E101E2010130E300CB
:10173000803120002A20883104302200DF00E000C0
:10174000E101E2010130E300803120002A208831EC
:1017500006302200DF000430E000E101E201013048
:10176000E300803120002A20883105302200DF008C
:10177000E000E101E2010130E300803120002A2095
:10178000883105302200DF000630E000E101E2018F
:101790000130E300803120002A20883122003F2FD1
:1017A00001302200DF00E000E101E201E3008031CE
:1017B00020002A20883102302200DF000130E000C2
:1017C000E101E201E300803120002A20883103306A
:1017D0002200DF000130E000E101E201E30080319E
:1017E00020002A20883104302200DF000130E00090
:1017F000E101E201E300803120002A208831053038
:101800002200DF000130E000E101E201E30080316D
:1018100020002A20883101302200DF000230E00061
:10182000E101E2010130E300803120002A2088310B
:1018300001302200DF000330E000E101E20101306D
:10184000E300803120002A20883102302200DF00AE
:101850000330E000E101E2010130E30080312000CB
:101860002A20883103302200DF00E000E101E2019C
:101870000130E300803120002A208831043022002A
:10188000DF000330E000E101E2010130E3008031DC
:1018900020002A20883105302200DF000430E000DB
:1018A000E101E2010130E300803120002A2088318B
:1018B00005302200DF00E000E101E2010130E30039
:1018C000803120002A20883101302200DF000530DD
:1018D000E000E101E2010130E300803120002A2034
:1018E000883102302200DF000630E000E101E20131
:1018F0000130E300803120002A20883103302200AB
:10190000DF000630E000E101E2010130E300803158
:1019100020002A20883104302200DF000630E00059
:10192000E101E2010130E300803120002A2088310A
:1019300022003F2F02302200DF000130E000E101F1
:10194000E201E300803120002A20883103302200A8
:10195000DF000130E000E101E201E300803120001E
:101960002A20883104302200DF000130E000E1014C
:10197000E201E300803120002A208831013022007A
:10198000DF000230E000E101E2010130E3008031DC
:1019900020002A20883101302200DF000330E000DF
:1019A000E101E2010130E300803120002A2088318A
:1019B00001302200DF000430E000E101E2010130EB
:1019C000E300803120002A20883102302200DF002D
:1019D0000430E000E101E2010130E3008031200049
:1019E0002A20883103302200DF000430E000E101CA
:1019F000E2010130E300803120002A2088310430E8
:101A00002200DF00E000E101E2010130E30080316B
:101A100020002A20883105302200DF000430E00059
:101A2000E101E2010130E300803120002A20883109
:101A300001302200DF000530E000E101E201013069
:101A4000E300803120002A20883105302200DF00A9
:101A5000E000E101E2010130E300803120002A20B2
:101A6000883102302200DF000630E000E101E201AF
:101A70000130E300803120002A2088310330220029
:101A8000DF000630E000E101E2010130E3008031D7
:101A900020002A20883104302200DF000630E000D8
:101AA000E101E2010130E300803120002A20883189
:101AB00022003F2F01302200DF00E000E101E201BF
:101AC000E300803120002A20883102302200DF002C
:101AD0000130E000E101E201E300803120002A2032
:101AE000883103302200DF000130E000E101E20133
:101AF000E300803120002A20883104302200DF00FA
:101B00000130E000E101E201E300803120002A2001
:101B1000883105302200DF000130E000E101E20100
:101B2000E300803120002A20883105302200DF00C8
:101B30000230E000E101E2010130E30080312000E9
:101B40002A20883104302200DF000330E000E10168
:101B5000E2010130E300803120002A208831033087
:101B60002200DF000430E000E101E2010130E30087
:101B7000803120002A20883103302200DF00053028
:101B8000E000E101E2010130E300803120002A2081
:101B9000883103302200DF000630E000E101E2017D
:101BA0000130E300803120002A20883122003F2FBD
:101BB00002302200DF000130E000E101E201E30039
:101BC000803120002A20883103302200DF000130DC
:101BD000E000E101E201E300803120002A208831A9
:101BE00004302200DF000130E000E101E201E30007
:101BF000803120002A20883101302200DF000230AD
:101C0000E000E101E2010130E300803120002A2000
:101C1000883105302200DF000230E000E101E201FE
:101C20000130E300803120002A2088310230220078
:101C3000DF000330E000E101E2010130E300803128
:101C400020002A20883103302200DF00E000E1017B
:101C5000E2010130E300803120002A208831043085
:101C60002200DF000330E000E101E2010130E30087
:101C7000803120002A20883101302200DF0004302A
:101C8000E000E101E2010130E300803120002A2080
:101C9000883105302200DF000430E000E101E2017C
:101CA0000130E300803120002A20883101302200F9
:101CB000DF000530E000E101E2010130E3008031A6
:101CC00020002A20883105302200DF00E000E101F9
:101CD000E2010130E300803120002A208831023007
:101CE0002200DF000630E000E101E2010130E30004
:101CF000803120002A20883103302200DF000630A6
:101D0000E000E101E2010130E300803120002A20FF
:101D1000883104302200DF000630E000E101E201FA
:101D20000130E300803120002A20883122003F2F3B
:101D300002302200DF000130E000E101E201E300B7
:101D4000803120002A20883103302200DF0001305A
:101D5000E000E101E201E300803120002A20883127
:101D600004302200DF000130E000E101E201E30085
:101D7000803120002A20883101302200DF0002302B
:101D8000E000E101E2010130E300803120002A207F
:101D9000883105302200DF000230E000E101E2017D
:101DA0000130E300803120002A20883101302200F8
:101DB000DF000330E000E101E2010130E3008031A7
:101DC00020002A20883105302200DF000330E000A7
:101DD000E101E2010130E300803120002A20883156
:101DE00002302200DF000430E000E101E2010130B6
:101DF000E300803120002A20883103302200DF00F8
:101E00000430E000E101E2010130E3008031200014
:101E10002A20883104302200DF00E000E101E201E5
:101E20000130E300803120002A2088310530220073
:101E3000DF000430E000E101E2010130E300803125
:101E400020002A20883105302200DF00E000E10177
:101E5000E2010130E300803120002A208831053082
:101E60002200DF000630E000E101E2010130E30082
:101E7000803120002A20883122003F2F22002000BC
:101E800008000A148A140A15820743281129852993
:0E1E90006B2A112BD02B9A2C5A2DD82D982E60
:102000002200CC01F8304C07CF001F30D00003185D
:10201000D00A50082300920022004F0823009100AC
:1020200020308500D130840001302200D200803180
:1020300020003823903122005108D200D301013012
:10204000D500D401803120004B23903122004C0D6B
:10205000F700F70DF70DF830F7057708453E8400D7
:10206000203085000318850A8008031953281F3083
:1020700023009200F030910020308500CF308400A2
:1020800001302200D200803120003823903122001C
:102090004F08D200D3010130D500D4018031200097
:1020A0004B23903122004C0DF700F70DF70DF8305F
:1020B000F7057708013E453E84002030850003186F
:1020C000850A8008031980281F3023009200F13010
:1020D000910020308500CF30840001302200D200F2
:1020E000803120003823903122004F08D200D301E4
:1020F0000130D500D401803120004B2390312200E3
:102100004C0DF700F70DF70DF830F7057708023E94
:10211000453E8400203085000318850A8008031995
:10212000AD281F3023009200F2309100203085004E
:10213000CF30840001302200D200803120003823CB
:10214000903122004F08D200D3010130D500D401D4
:10215000803120004B23903122004C0DF700F70D09
:10216000F70DF830F7057708033E453E8400203030
:1021700085000318850A80080319DA281F30230018
:102180009200F330910020308500CF308400013080
:102190002200D200803120003823903122004F08E5
:1021A000D200D3010130D500D401803120004B236F
:1021B000903122004C0DF700F70DF70DF830F705C0
:1021C0007708043E453E8400203085000318850AC8
:1021D0008008031907291F3023009200F430910072
:1021E00020308500CF30840001302200D2008031C1
:1021F00020003823903122004F08D200D301013053
:10220000D500D401803120004B23903122004C0DA9
:10221000F700F70DF70DF830F7057708053E453E56
:102220008400203085000318850A800803193429AA
:102230001F3023009200F530910020308500CF3010
:10224000840001302200D2008031200038239031F8
:1022500022004F08D200D3010130D500D4018031D3
:1022600020004B23903122004C0DF700F70DF70DA5
:10227000F830F7057708063E453E8400203085009B
:102280000318850A8008031961291F302300920072
:10229000F630910020308500CF30840001302200DC
:1022A000D200803120003823903122004F08D20024
:1022B000D3010130D500D401803120004B2390316F
:1022C00022004C0DF700F70DF70DF830F7057708F1
:1022D000073E453E8400203085000318850A8008AB
:1022E00003198E291F3023009200F730910020300F
:1022F0008500CF30840001302200D20080312000E0
:102300003823903122004F08D200D3010130D5008C
:10231000D401803120004B23903122004C0DF70076
:10232000F70DF70DF830F7057708853E840020306B
:1023300085000318850A80080319BA291F30230075
:102340009200E830910020308500CF3084000130C9
:102350002200D200803120003823903122004F0823
:10236000D200D3010130D500D401803120004B23AD
:10237000903122004C0DF700F70DF70DF830F705FE
:102380007708013E853E8400203085000318850AC9
:1023900080080319E7291F3023009200E9309100DB
:1023A00020308500CF30840001302200D2008031FF
:1023B00020003823903122004F08D200D301013091
:1023C000D500D401803120004B23903122004C0DE8
:1023D000F700F70DF70DF830F7057708023E853E58
:1023E0008400203085000318850A80080319142A08
:1023F0001F3023009200EA30910020308500CF305A
:10240000840001302200D200803120003823903136
:1024100022004F08D200D3010130D500D401803111
:1024200020004B23903122004C0DF700F70DF70DE3
:10243000F830F7057708033E853E8400203085009C
:102440000318850A80080319412A1F3023009200CF
:10245000EB30910020308500CF3084000130220025
:10246000D200803120003823903122004F08D20062
:10247000D3010130D500D401803120004B239031AD
:1024800022004C0DF700F70DF70DF830F70577082F
:10249000043E853E8400203085000318850A8008AC
:1024A00003196E2A1F3023009200EC309100203077
:1024B0008500CF30840001302200D200803120001E
:1024C0003823903122004F08D200D3010130D500CB
:1024D000D401803120004B23903122004C0DF700B5
:1024E000F70DF70DF830F7057708053E853E8400B7
:1024F000203085000318850A800803199B2A1F30A5
:1025000023009200ED30910020308500CF30840010
:1025100001302200D2008031200038239031220087
:102520004F08D200D3010130D500D4018031200002
:102530004B23903122004C0DF700F70DF70DF830CA
:10254000F7057708063E853E840020308500031895
:10255000850A80080319C82A1F3023009200EE3034
:10256000910020308500CF30840001302200D2005D
:10257000803120003823903122004F08D200D3014F
:102580000130D500D401803120004B23903122004E
:102590004C0DF700F70DF70DF830F7057708073EFB
:1025A000853E8400203085000318850A80080319C1
:1025B000F52A1F3023009200EF3091002030850073
:1025C000CF30840001302200D20080312000382337
:1025D000903122004F08D200D3010130D500D40140
:1025E000803120004B23903122004C0DF700F70D75
:1025F000F70DF830F7057708053E84002030850098
:102600000318850A80080319212B1F30230092002C
:10261000E030910020308500CF308400013022006E
:10262000D200803120003823903122004F08D200A0
:10263000D3010130D500D401803120004B239031EB
:1026400022004C0DF700F70DF70DF830F70577086D
:10265000013E053E8400203085000318850A80086D
:1026600003194E2B1F3023009200E13091002030DF
:102670008500CF30840001302200D200803120005C
:102680003823903122004F08D200D3010130D50009
:10269000D401803120004B23903122004C0DF700F3
:1026A000F70DF70DF830F7057708023E053E840078
:1026B000203085000318850A800803197B2B1F3002
:1026C00023009200E230910020308500CF3084005A
:1026D00001302200D20080312000382390312200C6
:1026E0004F08D200D3010130D500D4018031200041
:1026F0004B23903122004C0DF700F70DF70DF83009
:10270000F7057708033E053E840020308500031856
:10271000850A80080319A82B1F3023009200E3309C
:10272000910020308500CF30840001302200D2009B
:10273000803120003823903122004F08D200D3018D
:102740000130D500D401803120004B23903122008C
:102750004C0DF700F70DF70DF830F7057708043E3C
:10276000053E8400203085000318850A800803197F
:10277000D52B1F3023009200E430910020308500DB
:10278000CF30840001302200D20080312000382375
:10279000903122004F08D200D3010130D500D4017E
:1027A000803120004B23903122004C0DF700F70DB3
:1027B000F70DF830F7057708053E053E8400203018
:1027C00085000318850A80080319022C1F30230096
:1027D0009200E530910020308500CF308400013038
:1027E0002200D200803120003823903122004F088F
:1027F000D200D3010130D500D401803120004B2319
:10280000903122004C0DF700F70DF70DF830F70569
:102810007708063E053E8400203085000318850AAF
:10282000800803192F2C1F3023009200E6309100FE
:1028300020308500CF30840001302200D20080316A
:1028400020003823903122004F08D200D3010130FC
:10285000D500D401803120004B23903122004C0D53
:10286000F700F70DF70DF830F7057708073E053E3E
:102870008400203085000318850A800803195C2C29
:102880001F3023009200E730910020308500CF30C8
:10289000840001302200D2008031200038239031A2
:1028A00022004F08D200D3010130D500D40180317D
:1028B00020004B23903122000230CF0080312000D5
:1028C0006D2390311F3023009200E03091002030C2
:1028D0008500CF30840001302200D20080312000FA
:1028E0003823903122004F08D2000130D30001304C
:1028F000D500D401803120004B2390311F302300BC
:102900009200E130910020308500CF30840001300A
:102910002200D200803120003823903122004F085D
:10292000D2000130D3000130D500D4018031200025
:102930004B2390311F3023009200E2309100203071
:102940008500CF30840001302200D2008031200089
:102950003823903122004F08D2000130D3000130DB
:10296000D500D401803120004B2390311F3023004B
:102970009200E330910020308500CF308400013098
:102980002200D200803120003823903122004F08ED
:10299000D2000130D3000130D500D40180312000B5
:1029A0004B2390311F3023009200E43091002030FF
:1029B0008500CF30840001302200D2008031200019
:1029C0003823903122004F08D2000130D30001306B
:1029D000D500D401803120004B2390311F302300DB
:1029E0009200E530910020308500CF308400013026
:1029F0002200D200803120003823903122004F087D
:102A0000D2000130D3000130D500D4018031200044
:102A10004B2390311F3023009200E630910020308C
:102A20008500CF30840001302200D20080312000A8
:102A30003823903122004F08D2000130D3000130FA
:102A4000D500D401803120004B2390311F3023006A
:102A50009200E730910020308500CF3084000130B3
:102A60002200D200803120003823903122004F080C
:102A7000D2000130D3000130D500D40180312000D4
:102A80004B2390311F3023009200E830910020301A
:102A90008500CF30840001302200D2008031200038
:102AA0003823903122004F08D2000130D30001308A
:102AB000D500D401803120004B2390311F302300FA
:102AC0009200E930910020308500CF308400013041
:102AD0002200D200803120003823903122004F089C
:102AE000D2000130D3000130D500D4018031200064
:102AF0004B2390311F3023009200EA3091002030A8
:102B00008500CF30840001302200D20080312000C7
:102B10003823903122004F08D2000130D300013019
:102B2000D500D401803120004B2390311F30230089
:102B30009200EB30910020308500CF3084000130CE
:102B40002200D200803120003823903122004F082B
:102B5000D2000130D3000130D500D40180312000F3
:102B60004B2390311F3023009200EC309100203035
:102B70008500CF30840001302200D2008031200057
:102B80003823903122004F08D2000130D3000130A9
:102B9000D500D401803120004B2390311F30230019
:102BA0009200ED30910020308500CF30840001305C
:102BB0002200D200803120003823903122004F08BB
:102BC000D2000130D3000130D500D4018031200083
:102BD0004B2390311F3023009200EE3091002030C3
:102BE0008500CF30840001302200D20080312000E7
:102BF0003823903122004F08D2000130D300013039
:102C0000D500D401803120004B2390311F302300A8
:102C10009200EF30910020308500CF3084000130E9
:102C20002200D200803120003823903122004F084A
:102C3000D2000130D3000130D500D4018031200012
:102C40004B2390311F3023009200F0309100203050
:102C50008500CF30840001302200D2008031200076
:102C60003823903122004F08D2000130D3000130C8
:102C7000D500D401803120004B2390311F30230038
:102C80009200F130910020308500CF308400013077
:102C90002200D200803120003823903122004F08DA
:102CA000D2000130D3000130D500D40180312000A2
:102CB0004B2390311F3023009200F23091002030DE
:102CC0008500CF30840001302200D2008031200006
:102CD0003823903122004F08D2000130D300013058
:102CE000D500D401803120004B2390311F302300C8
:102CF0009200F330910020308500CF308400013005
:102D00002200D200803120003823903122004F0869
:102D1000D2000130D3000130D500D4018031200031
:102D20004B2390311F3023009200F430910020306B
:102D30008500CF30840001302200D2008031200095
:102D40003823903122004F08D2000130D3000130E7
:102D5000D500D401803120004B2390311F30230057
:102D60009200F530910020308500CF308400013092
:102D70002200D200803120003823903122004F08F9
:102D8000D2000130D3000130D500D40180312000C1
:102D90004B2390311F3023009200F63091002030F9
:102DA0008500CF30840001302200D2008031200025
:102DB0003823903122004F08D2000130D300013077
:102DC000D500D401803120004B2390311F302300E7
:102DD0009200F730910020308500CF308400013020
:102DE0002200D200803120003823903122004F0889
:102DF000D2000130D3000130D500D4018031200051
:102E00004B239031F83022004C07CF001F30D00008
:102E10000318D00A50082300920022004F08230014
:102E2000910020308500D130840001302200D20092
:102E3000803120003823903122005108D200013027
:102E4000D3000130D500D401803120004B239031D4
:102E50002200CC0A4C08083C0319CC01022880311E
:042E60002000572DCA
:103FC000623465346A346D347034753480346634E8
:103FD0006134643469346C346F34723477348234CD
:103FE0006034633468346B346E34713476348134C5
:103FF0007F347E347D347C347B347A347934783445
:020000040001F9
:04000E004439FF1E54
:00000001FF
;PIC16F1937
;CRC=F646  CREATED="13-May-16 11:16"
